S01100005350492D534C6176652E737265631F
S113000071C000008EC000008CC000008AC00000D7
S113001088C0000086C0000084C0000082C00000C8
S113002080C000007EC000007CC000007AC00000D8
S113003078C0000076C0000074C0000072C00000E8
S113004070C000006EC000006CC000006AC00000F8
S113005068C0000066C0000064C0000062C0000008
S113006060C000005EC000005CC000005AC0000018
S113007058C0000056C0000054C0000052C0000028
S113008050C000004EC000004CC000004AC0000038
S113009048C0000046C0000044C0000042C0000048
S11300A040C000003EC000003CC000003AC0000058
S11300B038C0000036C0000034C0000032C0000068
S11300C030C000002EC000002CC000002AC0000078
S11300D028C0000026C0000024C0000022C0000088
S11300E020C0000011241FBECFEFD1E2DEBFCDBF80
S11300F000E00CBF12E0A0E0B2E0EAEBF2E000E0C6
S11301000BBF02C007900D92A231B107D9F722E0CC
S1130110A2E1B2E001C01D92A231B207E1F78ED094
S1130120CAC06ECF87E690E09093C5008093C40068
S113013088E98093C1000895E0ECF0E0908195FF98
S1130140FDCF8093C6000895CF93DF93EC0188819F
S1130150882331F0219690E0EFDF89918111FBCF64
S1130160DF91CF9108958F929F92AF92BF92EF92B9
S1130170FF920F931F93CF93DF9300D01F921F9290
S1130180CDB7DEB78E010F5F1F4F7E0126E0E20E72
S1130190F11C0F2EFAE08F2E912CA12CB12CF02DF6
S11301A004C08D81803381F01AC0A501940161D00F
S11301B0605DF80161938F01622F732F842F952F57
S11301C0EE15FF0591F7EDCF8C818033B9F48B8167
S11301D08033B1F48A818033A9F410E001C014E0C3
S11301E0E1E0F0E0EC0FFD1FE10FF11D17FDFA95C2
S11301F0808190E0A1DF11509AF706C013E0F0CFA0
S113020012E0EECF11E0ECCF0F900F900F900F9013
S11302100F90DF91CF911F910F91FF90EF90BF90BE
S1130220AF909F908F90089588E084B980E48CBD4E
S1130230089598E094B98EBD2898089573DFF4DF8B
S1130240C4E6CF5F8C2FF5DF2FEF89E698E12150CC
S113025080409040E1F700C0000080E092E074DF4D
S11302606C2F70E080E090E07EDF8FE092E06CDF46
S1130270E8CFA1E21A2EAA1BBB1BFD010DC0AA1FC9
S1130280BB1FEE1FFF1FA217B307E407F50720F0FB
S1130290A21BB30BE40BF50B661F771F881F991F76
S11302A01A9469F760957095809590959B01AC01BF
S10D02B0BD01CF010895F894FFCFBB
S11302BA736C6176652073656E64696E673A000AC9
S10502CA00002E
S9030000FC
