S01500006C636473637265656E323536302E737265638F
S113000071C000008EC000008CC000008AC00000D7
S113001088C0000086C0000084C0000082C00000C8
S113002080C000007EC000007CC000007AC00000D8
S113003078C0000076C0000074C0000072C00000E8
S113004070C000006EC000006CC000006AC00000F8
S113005068C0000066C0000064C0000062C0000008
S113006060C000005EC000005CC000005AC0000018
S113007058C0000056C0000054C0000052C0000028
S113008050C000004EC000004CC000004AC0000038
S113009048C0000046C0000044C0000042C0000048
S11300A040C000003EC000003CC000003AC0000058
S11300B038C0000036C0000034C0000032C0000068
S11300C030C000002EC000002CC000002AC0000078
S11300D028C0000026C0000024C0000022C0000088
S11300E020C0000011241FBECFEFD1E2DEBFCDBF80
S11300F000E00CBF12E0A0E0B2E0E0E9F3E000E0D1
S11301000BBF02C007900D92AE32B107D9F722E0BF
S1130110AEE2B2E001C01D92AF32B207E1F70FD1F7
S113012035C16ECF87E690E09093C5008093C400FC
S113013088E98093C1000895E0ECF0E0908195FF98
S1130140FDCF8093C6000895CF93DF93EC0188819F
S1130150882331F0219690E0EFDF89918111FBCF64
S1130160DF91CF910895CF92DF92EF92FF920F9398
S11301701F93CF93DF936B017C01C7E0D0E001E0D4
S113018010E0C8010C2E02C0880F991F0A94E2F7F0
S1130190092E000CAA0BBB0B8C219D21AE21BF2183
S11301A0892B8A2B8B2B21F480E390E0C5DF03C0DD
S11301B081E390E0C1DF219720F7DF91CF911F9178
S11301C00F91FF90EF90DF90CF9008952D9A8FE9D3
S11301D09FE00197F1F700C000002D988FE99FE0A0
S11301E00197F1F700C000000895EAE0F1E0908182
S11301F09FEF908380930B01E9CF089510920A0139
S11302002F982E9A2D9A8FE99FE00197F1F700C05D
S113021000008091090180932E022D988FE99FE0C0
S11302200197F1F700C0000080912E020895E6DFE7
S11302308823ECF381E090E00895CF93C82FF7DF93
S1130240892B29F02F982E988C2FCFDF09C060912D
S11302502E0270E080E090E086DF88E092E074DFB8
S1130260CF91089581E0E9DF8FE39FE10197F1F7F2
S113027000C00000089584B1806E84B92FEF80E738
S113028092E0215080409040E1F700C0000088E3F4
S1130290D4DF87EC90E00197F1F700C0000088E319
S11302A0CCDF87EC90E00197F1F700C000008CE010
S11302B0C4DF90EF9A95F1F786E0BFDF20EF2A952F
S11302C0F1F7D0DF8FE19EE40197F1F700C0000061
S11302D00895B3DF87EC90E00197F1F700C00000C8
S11302E008952F9A2E9881CF0895CF93DF93EC0130
S11302F08881882341F02196F4DF80EF8A95F1F715
S113030089918111F9CFDF91CF9108950F931F93B4
S1130310CF93DF93883070F48B01880F880F880F98
S1130320805CD7DFE801085F1F4F8991DADFC017CF
S1130330D107D9F7DF91CF911F910F910895F2DE84
S11303409ADF2FEF89EF90E0215080409040E1F751
S113035000C000008EE092E0C8DF80EC6EDF25ED87
S11303602A95F1F700008DE192E0BFDF85E292E08B
S1130370BCDF60E072E080E0C9DF8FEC5EDF85ED1A
S11303808A95F1F7000080E0ACDFFFCFF894FFCF4F
S1130390040E0E0E1F0004000A00300031004C430E
S11303A04420446174617368656574200053543754
S11103B030363620004745544F42595445001C
S9030000FC
