:1000000071C000008EC000008CC000008AC00000DB
:1000100088C0000086C0000084C0000082C00000CC
:1000200080C000007EC000007CC000007AC00000DC
:1000300078C0000076C0000074C0000072C00000EC
:1000400070C000006EC000006CC000006AC00000FC
:1000500068C0000066C0000064C0000062C000000C
:1000600060C0000080C000005CC000005AC00000FA
:1000700058C0000056C0000054C0000052C000002C
:1000800050C000004EC000004CC000004AC000003C
:1000900048C0000046C0000044C0000042C000004C
:1000A00040C000003EC000003CC000003AC000005C
:1000B00038C0000036C0000034C0000032C000006C
:1000C00030C000002EC000002CC000002AC000007C
:1000D00028C0000026C0000024C0000022C000008C
:1000E00020C0000011241FBECFEFD1E2DEBFCDBF84
:1000F00000E00CBF12E0A0E0B2E0ECE9F2E000E0CA
:100100000BBF02C007900D92A830B107D9F724E0C9
:10011000A8E0B2E001C01D92AE30B207E1F7ACD06A
:10012000BBC06ECF87E690E09093C5008093C4007B
:1001300088E98093C1000895E0ECF0E0908195FF9C
:10014000FDCF8093C6000895CF93DF93EC018881A3
:10015000882331F0219690E0EFDF89918111FBCF68
:10016000DF91CF9108951F920F920FB60F92112435
:100170000BB60F928F939F93AF93BF93EF93FF9321
:100180009091C6009093080280910E03E82FF0E052
:10019000E15FFC4F90838F5F80930E0380910C038F
:1001A0008F5F80930C0390E0A0E0B0E080930803A1
:1001B00090930903A0930A03B0930B03FF91EF916F
:1001C000BF91AF919F918F910F900BBE0F900FBE7B
:1001D0000F901F90189590910D03E92FF0E0E15FCB
:1001E000FC4F80819F5F90930D03409108035091D5
:1001F000090360910A0370910B03411551056105D4
:10020000710561F04150510961097109409308037A
:100210005093090360930A0370930B030895CF93DF
:100220008FEFE9E0F2E0DF011D928A95E9F7809116
:10023000080390910903A0910A03B0910B03892B45
:100240008A2B8B2BA1F0C0E0C6DFEC2FF0E0E75F3C
:10025000FD4F8083CF5F8091080390910903A091A7
:100260000A03B0910B03892B8A2B8B2B69F789E04A
:1002700092E06ADFCF91089555DF80E092E064DF7D
:100280007894CDDF2FEF83ED90E3215080409040B4
:0C029000E1F700C00000F5CFF894FFCFAC
:08029C006B756E616C0A000035
:00000001FF
