:1000000071C000008EC000008CC000008AC00000DB
:1000100088C0000086C0000084C0000082C00000CC
:1000200080C000007EC000007CC000007AC00000DC
:1000300078C0000076C0000074C0000072C00000EC
:1000400070C000006EC000006CC000006AC00000FC
:1000500068C0000066C0000064C0000062C000000C
:1000600060C0000080C000005CC000005AC00000FA
:1000700058C0000056C0000054C0000052C000002C
:1000800050C000004EC000004CC000004AC000003C
:1000900048C0000046C0000044C0000042C000004C
:1000A00040C000003EC000003CC000003AC000005C
:1000B00038C0000036C0000034C0000032C000006C
:1000C00030C000002EC000002CC000002AC000007C
:1000D00028C0000026C0000024C0000022C000008C
:1000E00020C0000011241FBECFEFD1E2DEBFCDBF84
:1000F00000E00CBF12E0A0E0B2E0EEECF1E000E0C6
:100100000BBF02C007900D92A830B107D9F722E0CB
:10011000A8E0B2E001C01D92A930B207E1F74FD0CC
:1001200054C06ECF88E090E09093C5008093C400E7
:1001300088E98093C1000895E0ECF0E0908195FF9C
:10014000FDCF8093C6000895CF93DF93EC018881A3
:10015000882331F0219690E0EFDF89918111FBCF68
:10016000DF91CF9108951F920F920FB60F92112435
:100170000BB60F922F933F934F935F936F937F93A1
:100180008F939F93AF93BF93EF93FF938091C6009C
:100190008093080290E0D0DFFF91EF91BF91AF9183
:1001A0009F918F917F916F915F914F913F912F918F
:1001B0000F900BBE0F900FBE0F901F901895B2DFDF
:0E01C00080E092E0C1DF7894FFCFF894FFCF8B
:0801CE006B756E616C0A000004
:00000001FF
