:1000000071C000008EC000008CC000008AC00000DB
:1000100088C0000086C0000084C0000082C00000CC
:1000200080C000007EC000007CC000007AC00000DC
:1000300078C0000076C0000074C0000072C00000EC
:1000400070C000006EC000006CC000006AC00000FC
:1000500068C0000066C0000064C0000062C000000C
:1000600082C000005EC000005CC000005AC00000FA
:1000700058C0000056C0000054C0000052C000002C
:1000800050C000004EC000004CC000004AC000003C
:1000900048C0000046C0000044C0000042C000004C
:1000A00040C000003EC000003CC000003AC000005C
:1000B00038C0000036C0000034C0000032C000006C
:1000C00030C000002EC000002CC000002AC000007C
:1000D00028C0000026C0000024C0000022C000008C
:1000E00020C0000011241FBECFEFD1E2DEBFCDBF84
:1000F00000E00CBF12E0A0E0B2E0EAE7F2E000E0CE
:100100000BBF02C007900D92A834B107D9F723E0C6
:10011000A8E4B2E001C01D92AB34B207E1F76BD0A6
:10012000AAC06ECF87E690E09093C5008093C4008C
:1001300088E98093C1000895E0ECF0E0908195FF9C
:10014000FDCF8093C6000895CF93DF93EC018881A3
:10015000882331F0219690E0EFDF89918111FBCF68
:10016000DF91CF9108951F920F920FB60F92112435
:100170000BB60F928F939F93EF93FF939EB590933F
:10018000480280914B02E82FF0E0E45BFD4F908342
:100190008F5F80934B0280914A028F5F80934A0267
:1001A00080934902FF91EF919F918F910F900BBE29
:1001B0000F900FBE0F901F90189587E084B981E5CE
:1001C0008CBD08958CB58F778CBD089528988EBD11
:1001D0000DB407FEFDCF289A0895CF93DF93EC016D
:1001E0008881882329F02196F1DF89918111FCCF44
:1001F000DF91CF910895CF93DF93CDB7DEB7EC9722
:100200000FB6F894DEBF0FBECDBF8CDFD6DFDADFCE
:100210008EE1FE013196DF01282F1D922A95E9F724
:100220007E96DF011D928A95E9F780E092E08CDFEF
:10023000789484E192E088DF88E292E0CEDF8CE37C
:1002400092E0CBDF80E7C2DF86E292E07DDFBFEFA6
:1002500021EE84E0B15020408040E1F700C0000072
:1002600080E090E0EC960FB6F894DEBF0FBECDBFF5
:0A027000DF91CF910895F894FFCFBD
:10027A005350492D6D61737465722D73656E64698F
:10028A006E670A005350492D6D61737465722D5360
:10029A00656E64696E670A00537562736372696298
:1002AA006520476574746F62797465004B756E6179
:0802BA006C20477570746100AF
:00000001FF
