S01500006B756E616C2073657269616C322E7372656322
S11300000C9434000C943E000C943E000C943E007E
S11300100C943E000C943E000C943E000C943E0064
S11300200C943E000C943E000C943E000C943E0054
S11300300C943E000C943E000C943E000C943E0044
S11300400C943E000C943E000C943E000C943E0034
S11300500C943E000C943E000C943E000C943E0024
S11300600C943E000C943E0011241FBECFEFD8E048
S1130070DEBFCDBF0E945C000C9468000C940000AD
S113008087E68093C40088E18093C10086E0809372
S1130090C2000895E0ECF0E0908195FFFDCF8093DD
S11300A0C6000895E0ECF0E080818823ECF78FEF40
S11300B085B98091C60008958FEF84B90E944000ED
S11300C08BE60E944A000E9452000E944A00F8CF28
S10700D0F894FFCFCE
S9030000FC
