S00F0000646874313120612E73726563F2
S113000071C000008EC000008CC000008AC00000D7
S113001088C0000086C0000084C0000082C00000C8
S113002080C000007EC000007CC000007AC00000D8
S113003078C0000076C0000074C0000072C00000E8
S113004070C000006EC000006CC000006AC00000F8
S113005068C0000066C0000064C0000062C0000008
S113006060C000005EC000005CC000005AC0000018
S113007058C0000056C0000054C0000052C0000028
S113008050C000004EC000004CC000004AC0000038
S113009048C0000046C0000044C0000042C0000048
S11300A040C000003EC000003CC000003AC0000058
S11300B038C0000036C0000034C0000032C0000068
S11300C030C000002EC000002CC000002AC0000078
S11300D028C0000026C0000024C0000022C0000088
S11300E020C0000011241FBECFEFD1E2DEBFCDBF80
S11300F000E00CBF12E0A0E0B2E0EAEEF4E000E0C1
S11301000BBF02C007900D92A633B107D9F722E0C6
S1130110A6E3B2E001C01D92AB33B207E1F787D189
S1130120E2C16ECF87E690E09093C5008093C4004F
S113013088E98093C1000895E0ECF0E0908195FF98
S1130140FDCF8093C6000895CF93DF93EC0188819F
S1130150882331F0219690E0EFDF89918111FBCF64
S1130160DF91CF9108958F929F92AF92BF92EF92B9
S1130170FF920F931F93CF93DF9300D01F921F9290
S1130180CDB7DEB78E010F5F1F4F7E0126E0E20E72
S1130190F11C0F2EFAE08F2E912CA12CB12CF02DF6
S11301A004C08D81803381F01AC0A501940179D1F6
S11301B0605DF80161938F01622F732F842F952F57
S11301C0EE15FF0591F7EDCF8C818033B9F48B8167
S11301D08033B1F48A818033A9F410E001C014E0C3
S11301E0E1E0F0E0EC0FFD1FE10FF11D17FDFA95C2
S11301F0808190E0A1DF11509AF706C013E0F0CFA0
S113020012E0EECF11E0ECCF0F900F900F900F9013
S11302100F90DF91CF911F910F91FF90EF90BF90BE
S1130220AF909F908F90089585E080938100E4E8DB
S1130230F0E01182108285B5826085BD16BCA1E014
S1130240B1E08C9180618C93A2E0B1E08C918F7EBF
S11302508C9311821082808191818A319140D8F3EC
S1130260E2E0F1E080818061808316BC86B581354F
S1130270E8F3E1E0F1E080818F7E8083089580914E
S1130280000184FD0DC016BC86B58B3AE8F380915D
S1130290000184FF08C016BC86B58B3AE8F30895C4
S11302A081E090E0089582E090E00895BF92CF92BB
S11302B0DF92EF92FF920F931F93CF93DF931F92DE
S11302C0CDB7DEB7198266E372E00BE312E0DB011F
S11302D0E0E0F1E0EE24E394F12C31E047E050E07B
S11302E016BC208124FD0BC026B52837D0F366B593
S11302F070E080E090E037DF8CE090E08DC016BCC9
S1130300208124FF18C026B5213A20F009C026B563
S1130310213A30F426B52983208124FDF8CF0BC07F
S113032066B570E080E090E01EDF87E092E00CDFCD
S113033081E090E071C0D980C980232F0F2EF7E2AD
S1130340BF2EF02DBD1408F020E02223B1F0232F9E
S11303500F2EF6E4DF2EF02DDC1408F420E0222327
S113036061F06701042E02C0CC0CDD1C0A94E2F794
S1130370C0942C91C222CC922CC0C980D980232F46
S11303800F2EF7E7BF2EF02DBC1408F020E0222337
S1130390A9F0232F0F2EF0EACF2EF02DCD1408F460
S11303A020E0222359F02C916701042E02C0CC0CCA
S11303B0DD1C0A94E2F7C22ACC920BC080E092E0E2
S11303C0C3DE698170E080E090E0CDDE82E090E001
S11303D023C04150510908F083CF11960A171B0717
S11303E009F07CCFE6E3F2E030812181230F3281F2
S11303F0320F2381230F348123130CC0E82FF92FEC
S1130400DB018D91BD0181930A171B07C9F784E0B5
S113041090E002C083E090E00F90DF91CF911F91B4
S11304200F91FF90EF90DF90CF90BF900895CF93FE
S1130430DF9300D01F921F92CDB7DEB773DEF4DED8
S11304401EDFCE01019632DF89E092E07DDE698114
S113045070E080E090E087DE8DE192E075DE6A81F5
S113046070E080E090E07FDE8FE192E06DDE6B81F2
S113047070E080E090E077DE8DE192E065DE6C81F3
S113048070E080E090E06FDE2FEF87EA91E6215084
S113049080409040E1F700C0000087E092E054DE25
S11304A0CECFA1E21A2EAA1BBB1BFD010DC0AA1FB1
S11304B0BB1FEE1FFF1FA217B307E407F50720F0C9
S11304C0A21BB30BE40BF50B661F771F881F991F44
S11304D01A9469F760957095809590959B01AC018D
S10D04E0BD01CF010895F894FFCF89
S11304EA6572726F7220320A000A48756D6964690E
S11304FA7479206F6620646874313120002E000AF2
S113050A54656D7065726174757265206F662064D6
S109051A68743131200079
S9030000FC
