:100000000C9434000C9449000C9449000C94490061
:100010000C9449000C9449000C9449000C9449003C
:100020000C9449000C9449000C9449000C9449002C
:100030000C9449000C9449000C9449000C9449001C
:100040000C9449000C9449000C9449000C9449000C
:100050000C9449000C9449000C9449000C944900FC
:100060000C9449000C94490011241FBECFEFD8E036
:10007000DEBFCDBF11E0A0E0B1E0E2EFF0E002C0F2
:1000800005900D92A630B107D9F70E9470000C942C
:1000900077000C94000083E390E09093C500809378
:1000A000C40088E18093C10086E08093C200089577
:1000B000E0ECF0E0908195FFFDCF8093C6000895BD
:1000C000CF93DF93EC018881882339F0219690E06B
:1000D0000E94580089918111FACFDF91CF91089544
:1000E0000E944B0080E091E00E946000FFCFF894F6
:0200F000FFCF40
:0600F2006B756E616C00ED
:00000001FF
