S01B0000756172742D726563656976652D737472696E672E7372656379
S113000071C0000081C000007FC000007DC00000FE
S11300107BC0000079C0000077C0000075C00000FC
S113002073C0000071C000006FC000006DC000000C
S11300306BC0000069C0000067C0000065C000001C
S113004063C0000061C000005FC000005DC000002C
S11300505BC0000059C0000057C0000055C000003C
S113006053C0000051C000004FC000004DC000004C
S11300704BC0000049C0000047C0000045C000005C
S113008043C0000041C000003FC000003DC000006C
S11300903BC0000039C0000037C0000035C000007C
S11300A033C0000031C000002FC000002DC000008C
S11300B02BC0000029C0000027C0000025C000009C
S11300C023C0000021C000001FC000001DC00000AC
S11300D01BC0000019C0000017C0000015C00000BC
S11300E013C0000011241FBECFEFD1E2DEBFCDBF8D
S11300F000E00CBF22E0A0E0B2E001C01D92A030FD
S1130100B207E1F754D065C07BCF87E690E09093C7
S1130110C5008093C40088E98093C1000895E0EC91
S1130120F0E0908195FFFDCF8093C6000895E0EC48
S1130130F0E080818823ECF78091C6000895CF9287
S1130140DF92EF92FF920F931F93CF93DF936C0193
S11301508C01C0E0D0E00F2EF0ECEF2EF12CF02D4E
S1130160E6DF8A3049F0F80181938F012196F70187
S113017080818823ACF703C0CC0DDD1D1882DF918C
S1130180CF911F910F91FF90EF90DF90CF90089542
S1130190CF93DF93EC018881882331F0219690E09E
S11301A0BEDF89918111FBCFDF91CF910895CF9369
S11301B0DF93CDB7DEB764970FB6F894DEBF0FBEFA
S11301C0CDBFA3DFCE010196BADFCE010196E0DFF9
S10901D0F9CFF894FFCF03
S9030000FC
