:1000000071C000008EC000008CC000008AC00000DB
:1000100088C0000086C0000084C0000082C00000CC
:1000200080C000007EC000007CC000007AC00000DC
:1000300078C0000076C0000074C0000072C00000EC
:1000400070C000006EC000006CC000006AC00000FC
:1000500068C0000066C0000064C0000062C000000C
:1000600060C000005EC000005CC000005AC000001C
:1000700058C0000056C0000054C0000052C000002C
:1000800050C000004EC000004CC000004AC000003C
:1000900048C0000046C0000044C0000042C000004C
:1000A00040C000003EC000003CC000003AC000005C
:1000B00038C0000036C0000034C0000032C000006C
:1000C00030C000002EC000002CC000002AC000007C
:1000D00028C0000026C0000024C0000022C000008C
:1000E00020C0000011241FBECFEFD1E2DEBFCDBF84
:1000F00000E00CBF12E0A0E0B2E0EAE3F2E000E0D2
:100100000BBF02C007900D92AA30B107D9F722E0C9
:10011000AAE0B2E001C01D92AA30B207E1F774D0A4
:100120008AC06ECF87E690E09093C5008093C400AC
:1001300088E98093C1000895E0ECF0E0908195FF9C
:10014000FDCF8093C6000895CF93DF93EC018881A3
:10015000882331F0219690E0EFDF89918111FBCF68
:10016000DF91CF91089588E090E09093CD00809347
:10017000CC0088E98093C9000895E8ECF0E0908114
:1001800095FFFDCF8093CE000895E8ECF0E08081EC
:100190008823ECF78091CE000895CF92DF92EF9202
:1001A000FF920F931F93CF93DF936C018C01C0E0FC
:1001B000D0E00F2EF8ECEF2EF12CF02DE6DF8A3098
:1001C00049F0F80181938F012196F70180818823FE
:1001D000ACF703C0CC0DDD1D1882DF91CF911F91CC
:1001E0000F91FF90EF90DF90CF900895CF93DF9322
:1001F000EC018881882329F02196BFDF8991811144
:10020000FCCFDF91CF910895CF93DF93CDB7DEB7C9
:10021000C85CD1090FB6F894DEBF0FBECDBF82DF38
:10022000A2DF80E092E0E2DFCE010196B6DFCE01F0
:0A02300001968ADFFFCFF894FFCF9C
:0A023A0041542B474D520D0A0000FD
:00000001FF
