S00F0000727463333233312E7372656303
S113000071C000008EC000008CC000008AC00000D7
S113001088C0000086C0000084C0000082C00000C8
S113002080C000007EC000007CC000007AC00000D8
S113003078C0000076C0000074C0000072C00000E8
S113004070C000006EC000006CC000006AC00000F8
S113005068C0000066C0000064C0000062C0000008
S113006060C000005EC000005CC000005AC0000018
S113007058C0000056C0000054C0000052C0000028
S113008050C000004EC000004CC000004AC0000038
S113009048C0000046C0000044C0000042C0000048
S11300A040C000003EC000003CC000003AC0000058
S11300B038C0000036C0000034C0000032C0000068
S11300C030C000002EC000002CC000002AC0000078
S11300D028C0000026C0000024C0000022C0000088
S11300E020C0000011241FBECFEFD1E2DEBFCDBF80
S11300F000E00CBF12E0A0E0B2E0ECEFF8E000E0BA
S11301000BBF02C007900D92A83DB107D9F722E0BA
S1130110A8EDB2E001C01D92A83DB207E1F70ED2EE
S1130120EBC36ECF87E690E09093C5008093C40044
S113013088E98093C1000895E0ECF0E0908195FF98
S1130140FDCF8093C6000895CF93DF93EC0188819F
S1130150882331F0219690E0EFDF89918111FBCF64
S1130160DF91CF9108958F929F92AF92BF92EF92B9
S1130170FF920F931F93CF93DF9300D01F921F9290
S1130180CDB7DEB78E010F5F1F4F7E0126E0E20E72
S1130190F11C0F2EFAE08F2E912CA12CB12CF02DF6
S11301A004C08D81803381F01AC0A501940182D3EB
S11301B0605DF80161938F01622F732F842F952F57
S11301C0EE15FF0591F7EDCF8C818033B9F48B8167
S11301D08033B1F48A818033A9F410E001C014E0C3
S11301E0E1E0F0E0EC0FFD1FE10FF11D17FDFA95C2
S11301F0808190E0A1DF11509AF706C013E0F0CFA0
S113020012E0EECF11E0ECCF0F900F900F900F9013
S11302100F90DF91CF911F910F91FF90EF90BF90BE
S1130220AF909F908F90089586E48093B8001092C9
S1130230B900089584EA8093BC00ECEBF0E080817F
S11302408823ECF7E9EBF0E08081887F8830E1F7E0
S113025008958093BB0084E88093BC00ECEBF0E04D
S113026080818823ECF7E9EBF0E08081887F883196
S1130270E1F708958093BB0084E88093BC00ECEB25
S1130280F0E080818823ECF7E9EBF0E08081887F5F
S11302908034E1F708958093BB0084E88093BC0028
S11302A0ECEBF0E080818823ECF7E9EBF0E080816F
S11302B0887F8832E1F7089584E88093BC00ECEBF2
S11302C0F0E080818823ECF7E9EBF0E08081887F1F
S11302D08835E1F78091BB00089584EC8093BC00DD
S11302E0ECEBF0E080818823ECF7E9EBF0E080812F
S11302F0887F8035E1F78091BB00089584E980937D
S1130300BC00ECEBF0E0808184FDFDCF0895982FD4
S113031092959F70990F292F220F220F920F8F70A1
S1130320890F089580E092E00FDF7EDF8DE092E098
S11303300BDF80DF86E192E007DF80ED8ADF86E273
S113034092E002DF8EE0A7DF85E492E0FDDE88E242
S1130350A2DF82E692E0F8DE80E09DDF8DE792E0A6
S1130360F3DECCDF84E892E0EFCE08950F931F9381
S1130370CF93DF938C01EB015DDF81ED7BDFADDF9C
S1130380C6DFF8018083A9DFC2DFF8018183A5DF1E
S1130390BEDFF8018283A1DFBADF88839EDFB7DF87
S11303A089839BDFB4DF8A8387DFB1DF8B83A6DF9A
S11303B0DF91CF911F910F9108950F931F93CF93C6
S11303C0DF938C01EB01698170E080E090E0CBDE8B
S11303D086E992E0B9DE6A8170E080E090E0C3DEF5
S11303E086E992E0B1DE6B8170E080E090E0BBDEF4
S11303F088E992E0A9DE688170E080E090E0B3DEF5
S113040088E992E0A1DEF801628170E080E090E08A
S1130410AADE8EE992E098DEF801618170E080E066
S113042090E0A1DE8EE992E08FDEF801608170E059
S113043080E090E098DE84E192E086DEDF91CF9167
S11304401F910F910895CF93DF93EC01F3DE80EDBC
S113045000DF80E020DF88811EDF89811CDF8A8144
S11304601ADF4CDFDF91CF910895CF93DF93EC0136
S1130470E1DE80EDEEDE83E00EDF88810CDF898132
S11304800ADF8A8108DF8B8106DF38DFDF91CF91B5
S11304900895CF93DF93EC01FB01188287E38983EE
S11304A083E28A8387E0808383E0818381E082839F
S11304B081E28383CB01D9DFCE01C5DFDF91CF9108
S11304C00895CF92DF92EF92FF92CF93DF93B2DE43
S11304D080EDBFDE81E1DFDE11DFACDE81EDCADE5F
S11304E0FCDED82FE9DEC82F09DF6C2F70E0062E62
S11304F0672F000C661F770B000C661F771F072EF3
S1130500000C880B990BE7D020E030E040E85EE374
S11305106ED16B017C016D2F70E080E090E0D9D04A
S11305209B01AC01C701B60144D0A7D0862FDF914F
S1130530CF91FF90EF90DF90CF900895CF93DF930A
S1130540CDB7DEB727970FB6F894DEBF0FBECDBF89
S1130550E9DDE8DE80EA92E0F7DDBE016C5F7F4F03
S1130560CE01019696DF89EC92E0EEDDAADF682FDA
S113057070E080E090E0F7DD84E192E0E5DDBE012B
S11305806C5F7F4FCE010196F1DEBE016C5F7F4F41
S1130590CE01019612DF84E192E0D6DD2FEF83EDE8
S11305A090E3215080409040E1F700C00000DBCF91
S11305B05058BB27AA270ED0E0C0D1D030F0D6D0F7
S11305C020F031F49F3F11F41EF4C6C00EF4E09500
S11305D0E7FBBCC0E92FE2D080F3BA1762077307C8
S11305E08407950718F071F49EF5FAC00EF4E095AF
S11305F00B2EBA2FA02D0B01B90190010C01CA01D9
S1130600A0011124FF27591B99F0593F50F4503E83
S113061068F11A16F040A22F232F342F4427585F75
S1130620F3CF469537952795A795F0405395C9F78D
S11306307EF41F16BA0B620B730B840BBAF0915045
S1130640A1F0FF0FBB1F661F771F881FC2F70EC0E4
S1130650BA0F621F731F841F48F4879577956795B7
S1130660B795F7959E3F08F0B3CF9395880F08F0A0
S11306709927EE0F97958795089598D088F09F57FE
S113068090F0B92F9927B751A0F0D1F0660F771FDA
S1130690881F991F1AF0BA95C9F712C0B13081F0BA
S11306A09FD0B1E008959CC0672F782F8827B85F4A
S11306B039F0B93FCCF3869577956795B395D9F71B
S11306C03EF490958095709561957F4F8F4F9F4F25
S11306D00895E89409C097FB3EF490958095709531
S11306E061957F4F8F4F9F4F9923A9F0F92F96E97A
S11306F0BB279395F695879577956795B795F111EF
S1130700F8CFFAF4BB0F11F460FF1BC06F5F7F4F8B
S11307108F4F9F4F16C0882311F096E911C077239D
S113072021F09EE8872F762F05C0662371F096E8A6
S1130730862F70E060E02AF09A95660F771F881F75
S1130740DAF7880F9695879597F9089597F99F6733
S113075080E870E060E008959FEF80EC0895002445
S11307600A941616170618060906089500240A9412
S113077012161306140605060895092E0394000C98
S113078011F4882352F0BB0F40F4BF2B11F460FF27
S113079004C06F5F7F4F8F4F9F4F089557FD905850
S11307A0440F551F59F05F3F71F04795880F97FB31
S11307B0991F61F09F3F79F08795089512161306EB
S11307C01406551FF2CF4695F1DF08C0161617061A
S11307D01806991FF1CF869571056105089408954F
S11307E0E894BB2766277727CB0197F908950BD0A8
S11307F0C4CFB5DF28F0BADF18F0952309F0A6CFEF
S1130800ABCF1124EECFCADFA0F3959FD1F3950FA0
S113081050E0551F629FF001729FBB27F00DB11D80
S1130820639FAA27F00DB11DAA1F649F6627B00D10
S1130830A11D661F829F2227B00DA11D621F739FF9
S1130840B00DA11D621F839FA00D611D221F749F07
S11308503327A00D611D231F849F600D211D822F4E
S1130860762F6A2F11249F5750408AF0E1F0882395
S11308704AF0EE0FFF1FBB1F661F771F881F9150A2
S11308805040A9F79E3F510570F060CFAACF5F3F5B
S1130890ECF3983EDCF3869577956795B795F795D5
S11308A0E7959F5FC1F7FE2B880F911D969587955D
S11308B097F90895A1E21A2EAA1BBB1BFD010DC0D6
S11308C0AA1FBB1FEE1FFF1FA217B307E407F507FC
S11308D020F0A21BB30BE40BF50B661F771F881FD8
S11308E0991F1A9469F760957095809590959B016E
S10F08F0AC01BD01CF010895F894FFCFC6
S11308FC496E697469616C697A65200A0073746164
S113090C727420200A0077726974652061646472C1
S113091C657373200A002061646472657373206FBD
S113092C6620636F6E74726F6C2072656769737482
S113093C6572200A00206461746120666F72206302
S113094C6F6E74726F6C2072656769737465722054
S113095C0A006461746120666F722073746174752B
S113096C73207265676973746572200A0073746FFF
S113097C70200A0052746320696E697469616C6931
S113098C7A6564200A002F002020202C20003A00D5
S113099C2A2A2A2A2A2A2A2A2A2A2A727463647359
S11309AC333233312A2A2A2A2A2A2A2A2A2A2A2A76
S11309BC2A2A2A2A2A2A2A2A0054656D7065726109
S10B09CC74757265203A2000E5
S9030000FC
