:100000000C945A000C9464000C9464000C946400EA
:100010000C9464000C9464000C9464000C946400D0
:100020000C9464000C9464000C9464000C946400C0
:100030000C9464000C9464000C9464000C946400B0
:100040000C9464000C9464000C9464000C946400A0
:100050000C9464000C9464000C9464000C94640090
:100060000C9464000C9464000C9464000C94640080
:100070000C9464000C9464000C9464000C94640070
:100080000C9464000C9464000C9464000C94640060
:100090000C9464000C9464000C9464000C94640050
:1000A0000C9464000C9464000C9464000C94640040
:1000B0000C94640011241FBECFEFD8E0DEBFCDBF8B
:1000C0000E9466000C947F000C94000082E084B9CA
:1000D00092E08DEF95B92FE332E44FE021503040AC
:1000E0004040E1F700C0000085B92FE936E841E063
:1000F000215030404040E1F700C00000EBCFF894C1
:02010000FFCF2F
:00000001FF
