:100000000C9434000C9451000C9451000C94510049
:100010000C9451000C9451000C9451000C9451001C
:100020000C9451000C9451000C9451000C9451000C
:100030000C9451000C9451000C9451000C945100FC
:100040000C9451000C9451000C9451000C945100EC
:100050000C9451000C9451000C9451000C945100DC
:100060000C9451000C94510011241FBECFEFD8E026
:10007000DEBFCDBF11E0A0E0B1E0E2E0F1E002C000
:1000800005900D92AE30B107D9F721E0AEE0B1E0B6
:1000900001C01D92AE30B207E1F70E9474000C94CB
:1000A0007F000C94000087E68093C40088E1809371
:1000B000C10086E08093C2000895E0ECF0E09081FA
:1000C00095FFFDCF8093C6000895CF93DF93EC0199
:1000D0008881882331F021960E945D0089918111E9
:1000E000FBCFDF91CF9108950E94530080E091E013
:1000F0000E94650086E091E00E946500FBCFF894C5
:02010000FFCF2F
:0E010200636B646D63006A6E64666B7600006A
:00000001FF
